{"abi":[{"type":"constructor","inputs":[{"name":"_verifier","type":"address","internalType":"contract IVerifier"}],"stateMutability":"nonpayable"},{"type":"function","name":"MIN_ROUND_DURATION","inputs":[],"outputs":[{"name":"","type":"uint256","internalType":"uint256"}],"stateMutability":"view"},{"type":"function","name":"balanceOf","inputs":[{"name":"account","type":"address","internalType":"address"},{"name":"id","type":"uint256","internalType":"uint256"}],"outputs":[{"name":"","type":"uint256","internalType":"uint256"}],"stateMutability":"view"},{"type":"function","name":"balanceOfBatch","inputs":[{"name":"accounts","type":"address[]","internalType":"address[]"},{"name":"ids","type":"uint256[]","internalType":"uint256[]"}],"outputs":[{"name":"","type":"uint256[]","internalType":"uint256[]"}],"stateMutability":"view"},{"type":"function","name":"contractURI","inputs":[],"outputs":[{"name":"","type":"string","internalType":"string"}],"stateMutability":"pure"},{"type":"function","name":"createRound","inputs":[{"name":"_answer","type":"bytes32","internalType":"bytes32"}],"outputs":[],"stateMutability":"nonpayable"},{"type":"function","name":"getCurrentPanagram","inputs":[],"outputs":[{"name":"","type":"bytes32","internalType":"bytes32"}],"stateMutability":"view"},{"type":"function","name":"getCurrentRoundStatus","inputs":[],"outputs":[{"name":"","type":"address","internalType":"address"}],"stateMutability":"view"},{"type":"function","name":"isApprovedForAll","inputs":[{"name":"account","type":"address","internalType":"address"},{"name":"operator","type":"address","internalType":"address"}],"outputs":[{"name":"","type":"bool","internalType":"bool"}],"stateMutability":"view"},{"type":"function","name":"owner","inputs":[],"outputs":[{"name":"","type":"address","internalType":"address"}],"stateMutability":"view"},{"type":"function","name":"renounceOwnership","inputs":[],"outputs":[],"stateMutability":"nonpayable"},{"type":"function","name":"s_currentRound","inputs":[],"outputs":[{"name":"","type":"uint256","internalType":"uint256"}],"stateMutability":"view"},{"type":"function","name":"s_currentRoundWinner","inputs":[],"outputs":[{"name":"","type":"address","internalType":"address"}],"stateMutability":"view"},{"type":"function","name":"s_lastCorrectGuessByUser","inputs":[{"name":"","type":"address","internalType":"address"}],"outputs":[{"name":"","type":"uint256","internalType":"uint256"}],"stateMutability":"view"},{"type":"function","name":"s_roundStartTime","inputs":[],"outputs":[{"name":"","type":"uint256","internalType":"uint256"}],"stateMutability":"view"},{"type":"function","name":"s_verifier","inputs":[],"outputs":[{"name":"","type":"address","internalType":"contract IVerifier"}],"stateMutability":"view"},{"type":"function","name":"safeBatchTransferFrom","inputs":[{"name":"from","type":"address","internalType":"address"},{"name":"to","type":"address","internalType":"address"},{"name":"ids","type":"uint256[]","internalType":"uint256[]"},{"name":"values","type":"uint256[]","internalType":"uint256[]"},{"name":"data","type":"bytes","internalType":"bytes"}],"outputs":[],"stateMutability":"nonpayable"},{"type":"function","name":"safeTransferFrom","inputs":[{"name":"from","type":"address","internalType":"address"},{"name":"to","type":"address","internalType":"address"},{"name":"id","type":"uint256","internalType":"uint256"},{"name":"value","type":"uint256","internalType":"uint256"},{"name":"data","type":"bytes","internalType":"bytes"}],"outputs":[],"stateMutability":"nonpayable"},{"type":"function","name":"setApprovalForAll","inputs":[{"name":"operator","type":"address","internalType":"address"},{"name":"approved","type":"bool","internalType":"bool"}],"outputs":[],"stateMutability":"nonpayable"},{"type":"function","name":"setVerifier","inputs":[{"name":"_verifier","type":"address","internalType":"contract IVerifier"}],"outputs":[],"stateMutability":"nonpayable"},{"type":"function","name":"submitGuess","inputs":[{"name":"proof","type":"bytes","internalType":"bytes"}],"outputs":[{"name":"","type":"bool","internalType":"bool"}],"stateMutability":"nonpayable"},{"type":"function","name":"supportsInterface","inputs":[{"name":"interfaceId","type":"bytes4","internalType":"bytes4"}],"outputs":[{"name":"","type":"bool","internalType":"bool"}],"stateMutability":"view"},{"type":"function","name":"transferOwnership","inputs":[{"name":"newOwner","type":"address","internalType":"address"}],"outputs":[],"stateMutability":"nonpayable"},{"type":"function","name":"uri","inputs":[{"name":"","type":"uint256","internalType":"uint256"}],"outputs":[{"name":"","type":"string","internalType":"string"}],"stateMutability":"view"},{"type":"event","name":"ApprovalForAll","inputs":[{"name":"account","type":"address","indexed":true,"internalType":"address"},{"name":"operator","type":"address","indexed":true,"internalType":"address"},{"name":"approved","type":"bool","indexed":false,"internalType":"bool"}],"anonymous":false},{"type":"event","name":"OwnershipTransferred","inputs":[{"name":"previousOwner","type":"address","indexed":true,"internalType":"address"},{"name":"newOwner","type":"address","indexed":true,"internalType":"address"}],"anonymous":false},{"type":"event","name":"Panagram_NFTMinted","inputs":[{"name":"winner","type":"address","indexed":false,"internalType":"address"},{"name":"tokenID","type":"uint256","indexed":false,"internalType":"uint256"}],"anonymous":false},{"type":"event","name":"Panagram_NewRoundStarted","inputs":[],"anonymous":false},{"type":"event","name":"Panagram_ProofVerified","inputs":[{"name":"result","type":"bool","indexed":false,"internalType":"bool"}],"anonymous":false},{"type":"event","name":"Panagram_VerifierUpdated","inputs":[{"name":"_verifier","type":"address","indexed":false,"internalType":"contract IVerifier"}],"anonymous":false},{"type":"event","name":"TransferBatch","inputs":[{"name":"operator","type":"address","indexed":true,"internalType":"address"},{"name":"from","type":"address","indexed":true,"internalType":"address"},{"name":"to","type":"address","indexed":true,"internalType":"address"},{"name":"ids","type":"uint256[]","indexed":false,"internalType":"uint256[]"},{"name":"values","type":"uint256[]","indexed":false,"internalType":"uint256[]"}],"anonymous":false},{"type":"event","name":"TransferSingle","inputs":[{"name":"operator","type":"address","indexed":true,"internalType":"address"},{"name":"from","type":"address","indexed":true,"internalType":"address"},{"name":"to","type":"address","indexed":true,"internalType":"address"},{"name":"id","type":"uint256","indexed":false,"internalType":"uint256"},{"name":"value","type":"uint256","indexed":false,"internalType":"uint256"}],"anonymous":false},{"type":"event","name":"URI","inputs":[{"name":"value","type":"string","indexed":false,"internalType":"string"},{"name":"id","type":"uint256","indexed":true,"internalType":"uint256"}],"anonymous":false},{"type":"error","name":"ERC1155InsufficientBalance","inputs":[{"name":"sender","type":"address","internalType":"address"},{"name":"balance","type":"uint256","internalType":"uint256"},{"name":"needed","type":"uint256","internalType":"uint256"},{"name":"tokenId","type":"uint256","internalType":"uint256"}]},{"type":"error","name":"ERC1155InvalidApprover","inputs":[{"name":"approver","type":"address","internalType":"address"}]},{"type":"error","name":"ERC1155InvalidArrayLength","inputs":[{"name":"idsLength","type":"uint256","internalType":"uint256"},{"name":"valuesLength","type":"uint256","internalType":"uint256"}]},{"type":"error","name":"ERC1155InvalidOperator","inputs":[{"name":"operator","type":"address","internalType":"address"}]},{"type":"error","name":"ERC1155InvalidReceiver","inputs":[{"name":"receiver","type":"address","internalType":"address"}]},{"type":"error","name":"ERC1155InvalidSender","inputs":[{"name":"sender","type":"address","internalType":"address"}]},{"type":"error","name":"ERC1155MissingApprovalForAll","inputs":[{"name":"operator","type":"address","internalType":"address"},{"name":"owner","type":"address","internalType":"address"}]},{"type":"error","name":"OwnableInvalidOwner","inputs":[{"name":"owner","type":"address","internalType":"address"}]},{"type":"error","name":"OwnableUnauthorizedAccount","inputs":[{"name":"account","type":"address","internalType":"address"}]},{"type":"error","name":"Panagram_AlreadyAnsweredCorrectly","inputs":[]},{"type":"error","name":"Panagram_FirstPanagramNotSet","inputs":[]},{"type":"error","name":"Panagram_IncorrectGuess","inputs":[]},{"type":"error","name":"Panagram_MinTimeNotPassed","inputs":[{"name":"minTime","type":"uint256","internalType":"uint256"},{"name":"timePassed","type":"uint256","internalType":"uint256"}]},{"type":"error","name":"Panagram_NoRoundWinner","inputs":[]}],"bytecode":{"object":"0x608060405234801561000f575f5ffd5b5060405161350b38038061350b83398181016040528101906100319190610266565b336040518060800160405280604c81526020016134bf604c913961005a8161012160201b60201c565b505f73ffffffffffffffffffffffffffffffffffffffff168173ffffffffffffffffffffffffffffffffffffffff16036100cb575f6040517f1e4fbdf70000000000000000000000000000000000000000000000000000000081526004016100c291906102a0565b60405180910390fd5b6100da8161013460201b60201c565b508060045f6101000a81548173ffffffffffffffffffffffffffffffffffffffff021916908373ffffffffffffffffffffffffffffffffffffffff160217905550506105c5565b806002908161013091906104f6565b5050565b5f60035f9054906101000a900473ffffffffffffffffffffffffffffffffffffffff1690508160035f6101000a81548173ffffffffffffffffffffffffffffffffffffffff021916908373ffffffffffffffffffffffffffffffffffffffff1602179055508173ffffffffffffffffffffffffffffffffffffffff168173ffffffffffffffffffffffffffffffffffffffff167f8be0079c531659141344cd1fd0a4f28419497f9722a3daafe3b4186f6b6457e060405160405180910390a35050565b5f5ffd5b5f73ffffffffffffffffffffffffffffffffffffffff82169050919050565b5f610224826101fb565b9050919050565b5f6102358261021a565b9050919050565b6102458161022b565b811461024f575f5ffd5b50565b5f815190506102608161023c565b92915050565b5f6020828403121561027b5761027a6101f7565b5b5f61028884828501610252565b91505092915050565b61029a8161021a565b82525050565b5f6020820190506102b35f830184610291565b92915050565b5f81519050919050565b7f4e487b71000000000000000000000000000000000000000000000000000000005f52604160045260245ffd5b7f4e487b71000000000000000000000000000000000000000000000000000000005f52602260045260245ffd5b5f600282049050600182168061033457607f821691505b602082108103610347576103466102f0565b5b50919050565b5f819050815f5260205f209050919050565b5f6020601f8301049050919050565b5f82821b905092915050565b5f600883026103a97fffffffffffffffffffffffffffffffffffffffffffffffffffffffffffffffff8261036e565b6103b3868361036e565b95508019841693508086168417925050509392505050565b5f819050919050565b5f819050919050565b5f6103f76103f26103ed846103cb565b6103d4565b6103cb565b9050919050565b5f819050919050565b610410836103dd565b61042461041c826103fe565b84845461037a565b825550505050565b5f5f905090565b61043b61042c565b610446818484610407565b505050565b5b818110156104695761045e5f82610433565b60018101905061044c565b5050565b601f8211156104ae5761047f8161034d565b6104888461035f565b81016020851015610497578190505b6104ab6104a38561035f565b83018261044b565b50505b505050565b5f82821c905092915050565b5f6104ce5f19846008026104b3565b1980831691505092915050565b5f6104e683836104bf565b9150826002028217905092915050565b6104ff826102b9565b67ffffffffffffffff811115610518576105176102c3565b5b610522825461031d565b61052d82828561046d565b5f60209050601f83116001811461055e575f841561054c578287015190505b61055685826104db565b8655506105bd565b601f19841661056c8661034d565b5f5b828110156105935784890151825560018201915060208501945060208101905061056e565b868310156105b057848901516105ac601f8916826104bf565b8355505b6001600288020188555050505b505050505050565b612eed806105d25f395ff3fe608060405234801561000f575f5ffd5b506004361061014a575f3560e01c806376f865f9116100c1578063da7308361161007a578063da7308361461038a578063e8a3d485146103a8578063e985e9c5146103c6578063f242432a146103f6578063f2fde38b14610412578063fc48f26e1461042e5761014a565b806376f865f9146102da57806383208629146102f85780638da5cb5b14610314578063a22cb46514610332578063ab5669ad1461034e578063c5c1676d1461036c5761014a565b80633e7fbd06116101135780633e7fbd0614610218578063463e4069146102365780634e1273f4146102545780635437988d1461028457806366358ec1146102a0578063715018a6146102d05761014a565b8062fdd58e1461014e57806301ffc9a71461017e5780630d31d835146101ae5780630e89341c146101cc5780632eb2c2d6146101fc575b5f5ffd5b61016860048036038101906101639190611ead565b61045e565b6040516101759190611efa565b60405180910390f35b61019860048036038101906101939190611f68565b6104b3565b6040516101a59190611fad565b60405180910390f35b6101b6610594565b6040516101c39190611fd5565b60405180910390f35b6101e660048036038101906101e19190611fee565b6105bc565b6040516101f39190612089565b60405180910390f35b61021660048036038101906102119190612299565b61064e565b005b6102206106f5565b60405161022d9190611efa565b60405180910390f35b61023e6106fb565b60405161024b919061237c565b60405180910390f35b61026e60048036038101906102699190612455565b610704565b60405161027b9190612582565b60405180910390f35b61029e600480360381019061029991906125dd565b61080e565b005b6102ba60048036038101906102b59190612661565b610890565b6040516102c79190611fad565b60405180910390f35b6102d8610c38565b005b6102e2610c4b565b6040516102ef9190611fd5565b60405180910390f35b610312600480360381019061030d91906126d6565b610c70565b005b61031c610e0d565b6040516103299190611fd5565b60405180910390f35b61034c6004803603810190610347919061272b565b610e35565b005b610356610e4b565b6040516103639190611efa565b60405180910390f35b610374610e51565b6040516103819190611efa565b60405180910390f35b610392610e57565b60405161039f91906127c4565b60405180910390f35b6103b0610e7c565b6040516103bd9190612089565b60405180910390f35b6103e060048036038101906103db91906127dd565b610e9c565b6040516103ed9190611fad565b60405180910390f35b610410600480360381019061040b919061281b565b610f2a565b005b61042c600480360381019061042791906128ae565b610fd1565b005b610448600480360381019061044391906128ae565b611055565b6040516104559190611efa565b60405180910390f35b5f5f5f8381526020019081526020015f205f8473ffffffffffffffffffffffffffffffffffffffff1673ffffffffffffffffffffffffffffffffffffffff1681526020019081526020015f2054905092915050565b5f7fd9b67a26000000000000000000000000000000000000000000000000000000007bffffffffffffffffffffffffffffffffffffffffffffffffffffffff1916827bffffffffffffffffffffffffffffffffffffffffffffffffffffffff1916148061057d57507f0e89341c000000000000000000000000000000000000000000000000000000007bffffffffffffffffffffffffffffffffffffffffffffffffffffffff1916827bffffffffffffffffffffffffffffffffffffffffffffffffffffffff1916145b8061058d575061058c8261106a565b5b9050919050565b5f60075f9054906101000a900473ffffffffffffffffffffffffffffffffffffffff16905090565b6060600280546105cb90612906565b80601f01602080910402602001604051908101604052809291908181526020018280546105f790612906565b80156106425780601f1061061957610100808354040283529160200191610642565b820191905f5260205f20905b81548152906001019060200180831161062557829003601f168201915b50505050509050919050565b5f6106576110d3565b90508073ffffffffffffffffffffffffffffffffffffffff168673ffffffffffffffffffffffffffffffffffffffff161415801561069c575061069a8682610e9c565b155b156106e05780866040517fe237d9220000000000000000000000000000000000000000000000000000000081526004016106d7929190612936565b60405180910390fd5b6106ed86868686866110da565b505050505050565b60065481565b5f600554905090565b6060815183511461075057815183516040517f5b05999100000000000000000000000000000000000000000000000000000000815260040161074792919061295d565b60405180910390fd5b5f835167ffffffffffffffff81111561076c5761076b6120ad565b5b60405190808252806020026020018201604052801561079a5781602001602082028036833780820191505090505b5090505f5f90505b8451811015610803576107d96107c182876111ce90919063ffffffff16565b6107d483876111e190919063ffffffff16565b61045e565b8282815181106107ec576107eb612984565b5b6020026020010181815250508060010190506107a2565b508091505092915050565b6108166111f4565b8060045f6101000a81548173ffffffffffffffffffffffffffffffffffffffff021916908373ffffffffffffffffffffffffffffffffffffffff1602179055507f8320f616f21b1990babcbe80e84448b3a81b3805dd2b1aa27fb114e990c0601c8160405161088591906127c4565b60405180910390a150565b5f5f600854036108cc576040517fae99aaee00000000000000000000000000000000000000000000000000000000815260040160405180910390fd5b5f600167ffffffffffffffff8111156108e8576108e76120ad565b5b6040519080825280602002602001820160405280156109165781602001602082028036833780820191505090505b509050600554815f8151811061092f5761092e612984565b5b60200260200101818152505060085460095f3373ffffffffffffffffffffffffffffffffffffffff1673ffffffffffffffffffffffffffffffffffffffff1681526020019081526020015f2054036109b3576040517f464dc50300000000000000000000000000000000000000000000000000000000815260040160405180910390fd5b5f60045f9054906101000a900473ffffffffffffffffffffffffffffffffffffffff1673ffffffffffffffffffffffffffffffffffffffff1663ea50d0e48686856040518463ffffffff1660e01b8152600401610a1293929190612aa4565b602060405180830381865afa158015610a2d573d5f5f3e3d5ffd5b505050506040513d601f19601f82011682018060405250810190610a519190612aef565b90507fcee0a43d63fdf9bab350ebafdc7f304b1fd54617bffbcf04ad46cbc53784003b81604051610a829190611fad565b60405180910390a180610ac1576040517f46f2fe7000000000000000000000000000000000000000000000000000000000815260040160405180910390fd5b60085460095f3373ffffffffffffffffffffffffffffffffffffffff1673ffffffffffffffffffffffffffffffffffffffff1681526020019081526020015f20819055505f73ffffffffffffffffffffffffffffffffffffffff1660075f9054906101000a900473ffffffffffffffffffffffffffffffffffffffff1673ffffffffffffffffffffffffffffffffffffffff1603610bd8573373ffffffffffffffffffffffffffffffffffffffff1660075f9054906101000a90505050610b99335f600160405180602001604052805f81525061127b565b7fd330953b1c337786a01467c2261b138a3aa406ce42a5b4e53e36f6bccb9b8231336001604051610bcb929190612b53565b60405180910390a1610c2d565b610bf33360018060405180602001604052805f81525061127b565b7fd330953b1c337786a01467c2261b138a3aa406ce42a5b4e53e36f6bccb9b8231335f604051610c24929190612bb3565b60405180910390a15b809250505092915050565b610c406111f4565b610c495f611310565b565b60075f9054906101000a900473ffffffffffffffffffffffffffffffffffffffff1681565b610c786111f4565b5f60065403610c8d5780600581905550610dc7565b610e10600654610c9d9190612c07565b421115610cf257610e1060065442610cb59190612c3a565b6040517f2b7067fc000000000000000000000000000000000000000000000000000000008152600401610ce992919061295d565b60405180910390fd5b5f73ffffffffffffffffffffffffffffffffffffffff1660075f9054906101000a900473ffffffffffffffffffffffffffffffffffffffff1673ffffffffffffffffffffffffffffffffffffffff1603610d78576040517f0b556b5d00000000000000000000000000000000000000000000000000000000815260040160405180910390fd5b80600581905550426006819055505f60075f6101000a81548173ffffffffffffffffffffffffffffffffffffffff021916908373ffffffffffffffffffffffffffffffffffffffff1602179055505b60085f815480929190610dd990612c6d565b91905055507fbaaeef9ccd572434e41798327c73451dc490ecd2a5d79c66ab115d8e3844a1dd60405160405180910390a150565b5f60035f9054906101000a900473ffffffffffffffffffffffffffffffffffffffff16905090565b610e47610e406110d3565b83836113d3565b5050565b610e1081565b60085481565b60045f9054906101000a900473ffffffffffffffffffffffffffffffffffffffff1681565b60606040518060800160405280604c8152602001612e6c604c9139905090565b5f60015f8473ffffffffffffffffffffffffffffffffffffffff1673ffffffffffffffffffffffffffffffffffffffff1681526020019081526020015f205f8373ffffffffffffffffffffffffffffffffffffffff1673ffffffffffffffffffffffffffffffffffffffff1681526020019081526020015f205f9054906101000a900460ff16905092915050565b5f610f336110d3565b90508073ffffffffffffffffffffffffffffffffffffffff168673ffffffffffffffffffffffffffffffffffffffff1614158015610f785750610f768682610e9c565b155b15610fbc5780866040517fe237d922000000000000000000000000000000000000000000000000000000008152600401610fb3929190612936565b60405180910390fd5b610fc9868686868661153c565b505050505050565b610fd96111f4565b5f73ffffffffffffffffffffffffffffffffffffffff168173ffffffffffffffffffffffffffffffffffffffff1603611049575f6040517f1e4fbdf70000000000000000000000000000000000000000000000000000000081526004016110409190611fd5565b60405180910390fd5b61105281611310565b50565b6009602052805f5260405f205f915090505481565b5f7f01ffc9a7000000000000000000000000000000000000000000000000000000007bffffffffffffffffffffffffffffffffffffffffffffffffffffffff1916827bffffffffffffffffffffffffffffffffffffffffffffffffffffffff1916149050919050565b5f33905090565b5f73ffffffffffffffffffffffffffffffffffffffff168473ffffffffffffffffffffffffffffffffffffffff160361114a575f6040517f57f447ce0000000000000000000000000000000000000000000000000000000081526004016111419190611fd5565b60405180910390fd5b5f73ffffffffffffffffffffffffffffffffffffffff168573ffffffffffffffffffffffffffffffffffffffff16036111ba575f6040517f01a835140000000000000000000000000000000000000000000000000000000081526004016111b19190611fd5565b60405180910390fd5b6111c78585858585611642565b5050505050565b5f60208202602084010151905092915050565b5f60208202602084010151905092915050565b6111fc6110d3565b73ffffffffffffffffffffffffffffffffffffffff1661121a610e0d565b73ffffffffffffffffffffffffffffffffffffffff16146112795761123d6110d3565b6040517f118cdaa70000000000000000000000000000000000000000000000000000000081526004016112709190611fd5565b60405180910390fd5b565b5f73ffffffffffffffffffffffffffffffffffffffff168473ffffffffffffffffffffffffffffffffffffffff16036112eb575f6040517f57f447ce0000000000000000000000000000000000000000000000000000000081526004016112e29190611fd5565b60405180910390fd5b5f5f6112f785856116ee565b915091506113085f87848487611642565b505050505050565b5f60035f9054906101000a900473ffffffffffffffffffffffffffffffffffffffff1690508160035f6101000a81548173ffffffffffffffffffffffffffffffffffffffff021916908373ffffffffffffffffffffffffffffffffffffffff1602179055508173ffffffffffffffffffffffffffffffffffffffff168173ffffffffffffffffffffffffffffffffffffffff167f8be0079c531659141344cd1fd0a4f28419497f9722a3daafe3b4186f6b6457e060405160405180910390a35050565b5f73ffffffffffffffffffffffffffffffffffffffff168273ffffffffffffffffffffffffffffffffffffffff1603611443575f6040517fced3e10000000000000000000000000000000000000000000000000000000000815260040161143a9190611fd5565b60405180910390fd5b8060015f8573ffffffffffffffffffffffffffffffffffffffff1673ffffffffffffffffffffffffffffffffffffffff1681526020019081526020015f205f8473ffffffffffffffffffffffffffffffffffffffff1673ffffffffffffffffffffffffffffffffffffffff1681526020019081526020015f205f6101000a81548160ff0219169083151502179055508173ffffffffffffffffffffffffffffffffffffffff168373ffffffffffffffffffffffffffffffffffffffff167f17307eab39ab6107e8899845ad3d59bd9653f200f220920489ca2b5937696c318360405161152f9190611fad565b60405180910390a3505050565b5f73ffffffffffffffffffffffffffffffffffffffff168473ffffffffffffffffffffffffffffffffffffffff16036115ac575f6040517f57f447ce0000000000000000000000000000000000000000000000000000000081526004016115a39190611fd5565b60405180910390fd5b5f73ffffffffffffffffffffffffffffffffffffffff168573ffffffffffffffffffffffffffffffffffffffff160361161c575f6040517f01a835140000000000000000000000000000000000000000000000000000000081526004016116139190611fd5565b60405180910390fd5b5f5f61162885856116ee565b915091506116398787848487611642565b50505050505050565b61164e8585858561171e565b5f73ffffffffffffffffffffffffffffffffffffffff168473ffffffffffffffffffffffffffffffffffffffff16146116e7575f61168a6110d3565b905060018451036116d6575f6116a95f866111e190919063ffffffff16565b90505f6116bf5f866111e190919063ffffffff16565b90506116cf838989858589611ab1565b50506116e5565b6116e4818787878787611c60565b5b505b5050505050565b60608060405191506001825283602083015260408201905060018152826020820152604081016040529250929050565b805182511461176857815181516040517f5b05999100000000000000000000000000000000000000000000000000000000815260040161175f92919061295d565b60405180910390fd5b5f6117716110d3565b90505f5f90505b8351811015611970575f61179582866111e190919063ffffffff16565b90505f6117ab83866111e190919063ffffffff16565b90505f73ffffffffffffffffffffffffffffffffffffffff168873ffffffffffffffffffffffffffffffffffffffff16146118ce575f5f5f8481526020019081526020015f205f8a73ffffffffffffffffffffffffffffffffffffffff1673ffffffffffffffffffffffffffffffffffffffff1681526020019081526020015f205490508181101561187a57888183856040517f03dee4c50000000000000000000000000000000000000000000000000000000081526004016118719493929190612cb4565b60405180910390fd5b8181035f5f8581526020019081526020015f205f8b73ffffffffffffffffffffffffffffffffffffffff1673ffffffffffffffffffffffffffffffffffffffff1681526020019081526020015f2081905550505b5f73ffffffffffffffffffffffffffffffffffffffff168773ffffffffffffffffffffffffffffffffffffffff161461196357805f5f8481526020019081526020015f205f8973ffffffffffffffffffffffffffffffffffffffff1673ffffffffffffffffffffffffffffffffffffffff1681526020019081526020015f205f82825461195b9190612c07565b925050819055505b5050806001019050611778565b506001835103611a2b575f61198e5f856111e190919063ffffffff16565b90505f6119a45f856111e190919063ffffffff16565b90508573ffffffffffffffffffffffffffffffffffffffff168773ffffffffffffffffffffffffffffffffffffffff168473ffffffffffffffffffffffffffffffffffffffff167fc3d58168c5ae7397731d063d5bbf3d657854427343f4c083240f7aacaa2d0f628585604051611a1c92919061295d565b60405180910390a45050611aaa565b8373ffffffffffffffffffffffffffffffffffffffff168573ffffffffffffffffffffffffffffffffffffffff168273ffffffffffffffffffffffffffffffffffffffff167f4a39dc06d4c0dbc64b70af90fd698a233a518aa5d07e595d983b8c0526c8f7fb8686604051611aa1929190612cf7565b60405180910390a45b5050505050565b5f8473ffffffffffffffffffffffffffffffffffffffff163b1115611c58578373ffffffffffffffffffffffffffffffffffffffff1663f23a6e6187878686866040518663ffffffff1660e01b8152600401611b11959493929190612d6e565b6020604051808303815f875af1925050508015611b4c57506040513d601f19601f82011682018060405250810190611b499190612dda565b60015b611bcd573d805f8114611b7a576040519150601f19603f3d011682016040523d82523d5f602084013e611b7f565b606091505b505f815103611bc557846040517f57f447ce000000000000000000000000000000000000000000000000000000008152600401611bbc9190611fd5565b60405180910390fd5b805160208201fd5b63f23a6e6160e01b7bffffffffffffffffffffffffffffffffffffffffffffffffffffffff1916817bffffffffffffffffffffffffffffffffffffffffffffffffffffffff191614611c5657846040517f57f447ce000000000000000000000000000000000000000000000000000000008152600401611c4d9190611fd5565b60405180910390fd5b505b505050505050565b5f8473ffffffffffffffffffffffffffffffffffffffff163b1115611e07578373ffffffffffffffffffffffffffffffffffffffff1663bc197c8187878686866040518663ffffffff1660e01b8152600401611cc0959493929190612e05565b6020604051808303815f875af1925050508015611cfb57506040513d601f19601f82011682018060405250810190611cf89190612dda565b60015b611d7c573d805f8114611d29576040519150601f19603f3d011682016040523d82523d5f602084013e611d2e565b606091505b505f815103611d7457846040517f57f447ce000000000000000000000000000000000000000000000000000000008152600401611d6b9190611fd5565b60405180910390fd5b805160208201fd5b63bc197c8160e01b7bffffffffffffffffffffffffffffffffffffffffffffffffffffffff1916817bffffffffffffffffffffffffffffffffffffffffffffffffffffffff191614611e0557846040517f57f447ce000000000000000000000000000000000000000000000000000000008152600401611dfc9190611fd5565b60405180910390fd5b505b505050505050565b5f604051905090565b5f5ffd5b5f5ffd5b5f73ffffffffffffffffffffffffffffffffffffffff82169050919050565b5f611e4982611e20565b9050919050565b611e5981611e3f565b8114611e63575f5ffd5b50565b5f81359050611e7481611e50565b92915050565b5f819050919050565b611e8c81611e7a565b8114611e96575f5ffd5b50565b5f81359050611ea781611e83565b92915050565b5f5f60408385031215611ec357611ec2611e18565b5b5f611ed085828601611e66565b9250506020611ee185828601611e99565b9150509250929050565b611ef481611e7a565b82525050565b5f602082019050611f0d5f830184611eeb565b92915050565b5f7fffffffff0000000000000000000000000000000000000000000000000000000082169050919050565b611f4781611f13565b8114611f51575f5ffd5b50565b5f81359050611f6281611f3e565b92915050565b5f60208284031215611f7d57611f7c611e18565b5b5f611f8a84828501611f54565b91505092915050565b5f8115159050919050565b611fa781611f93565b82525050565b5f602082019050611fc05f830184611f9e565b92915050565b611fcf81611e3f565b82525050565b5f602082019050611fe85f830184611fc6565b92915050565b5f6020828403121561200357612002611e18565b5b5f61201084828501611e99565b91505092915050565b5f81519050919050565b5f82825260208201905092915050565b8281835e5f83830152505050565b5f601f19601f8301169050919050565b5f61205b82612019565b6120658185612023565b9350612075818560208601612033565b61207e81612041565b840191505092915050565b5f6020820190508181035f8301526120a18184612051565b905092915050565b5f5ffd5b7f4e487b71000000000000000000000000000000000000000000000000000000005f52604160045260245ffd5b6120e382612041565b810181811067ffffffffffffffff82111715612102576121016120ad565b5b80604052505050565b5f612114611e0f565b905061212082826120da565b919050565b5f67ffffffffffffffff82111561213f5761213e6120ad565b5b602082029050602081019050919050565b5f5ffd5b5f61216661216184612125565b61210b565b9050808382526020820190506020840283018581111561218957612188612150565b5b835b818110156121b2578061219e8882611e99565b84526020840193505060208101905061218b565b5050509392505050565b5f82601f8301126121d0576121cf6120a9565b5b81356121e0848260208601612154565b91505092915050565b5f5ffd5b5f67ffffffffffffffff821115612207576122066120ad565b5b61221082612041565b9050602081019050919050565b828183375f83830152505050565b5f61223d612238846121ed565b61210b565b905082815260208101848484011115612259576122586121e9565b5b61226484828561221d565b509392505050565b5f82601f8301126122805761227f6120a9565b5b813561229084826020860161222b565b91505092915050565b5f5f5f5f5f60a086880312156122b2576122b1611e18565b5b5f6122bf88828901611e66565b95505060206122d088828901611e66565b945050604086013567ffffffffffffffff8111156122f1576122f0611e1c565b5b6122fd888289016121bc565b935050606086013567ffffffffffffffff81111561231e5761231d611e1c565b5b61232a888289016121bc565b925050608086013567ffffffffffffffff81111561234b5761234a611e1c565b5b6123578882890161226c565b9150509295509295909350565b5f819050919050565b61237681612364565b82525050565b5f60208201905061238f5f83018461236d565b92915050565b5f67ffffffffffffffff8211156123af576123ae6120ad565b5b602082029050602081019050919050565b5f6123d26123cd84612395565b61210b565b905080838252602082019050602084028301858111156123f5576123f4612150565b5b835b8181101561241e578061240a8882611e66565b8452602084019350506020810190506123f7565b5050509392505050565b5f82601f83011261243c5761243b6120a9565b5b813561244c8482602086016123c0565b91505092915050565b5f5f6040838503121561246b5761246a611e18565b5b5f83013567ffffffffffffffff81111561248857612487611e1c565b5b61249485828601612428565b925050602083013567ffffffffffffffff8111156124b5576124b4611e1c565b5b6124c1858286016121bc565b9150509250929050565b5f81519050919050565b5f82825260208201905092915050565b5f819050602082019050919050565b6124fd81611e7a565b82525050565b5f61250e83836124f4565b60208301905092915050565b5f602082019050919050565b5f612530826124cb565b61253a81856124d5565b9350612545836124e5565b805f5b8381101561257557815161255c8882612503565b97506125678361251a565b925050600181019050612548565b5085935050505092915050565b5f6020820190508181035f83015261259a8184612526565b905092915050565b5f6125ac82611e3f565b9050919050565b6125bc816125a2565b81146125c6575f5ffd5b50565b5f813590506125d7816125b3565b92915050565b5f602082840312156125f2576125f1611e18565b5b5f6125ff848285016125c9565b91505092915050565b5f5ffd5b5f5f83601f840112612621576126206120a9565b5b8235905067ffffffffffffffff81111561263e5761263d612608565b5b60208301915083600182028301111561265a57612659612150565b5b9250929050565b5f5f6020838503121561267757612676611e18565b5b5f83013567ffffffffffffffff81111561269457612693611e1c565b5b6126a08582860161260c565b92509250509250929050565b6126b581612364565b81146126bf575f5ffd5b50565b5f813590506126d0816126ac565b92915050565b5f602082840312156126eb576126ea611e18565b5b5f6126f8848285016126c2565b91505092915050565b61270a81611f93565b8114612714575f5ffd5b50565b5f8135905061272581612701565b92915050565b5f5f6040838503121561274157612740611e18565b5b5f61274e85828601611e66565b925050602061275f85828601612717565b9150509250929050565b5f819050919050565b5f61278c61278761278284611e20565b612769565b611e20565b9050919050565b5f61279d82612772565b9050919050565b5f6127ae82612793565b9050919050565b6127be816127a4565b82525050565b5f6020820190506127d75f8301846127b5565b92915050565b5f5f604083850312156127f3576127f2611e18565b5b5f61280085828601611e66565b925050602061281185828601611e66565b9150509250929050565b5f5f5f5f5f60a0868803121561283457612833611e18565b5b5f61284188828901611e66565b955050602061285288828901611e66565b945050604061286388828901611e99565b935050606061287488828901611e99565b925050608086013567ffffffffffffffff81111561289557612894611e1c565b5b6128a18882890161226c565b9150509295509295909350565b5f602082840312156128c3576128c2611e18565b5b5f6128d084828501611e66565b91505092915050565b7f4e487b71000000000000000000000000000000000000000000000000000000005f52602260045260245ffd5b5f600282049050600182168061291d57607f821691505b6020821081036129305761292f6128d9565b5b50919050565b5f6040820190506129495f830185611fc6565b6129566020830184611fc6565b9392505050565b5f6040820190506129705f830185611eeb565b61297d6020830184611eeb565b9392505050565b7f4e487b71000000000000000000000000000000000000000000000000000000005f52603260045260245ffd5b5f82825260208201905092915050565b5f6129cc83856129b1565b93506129d983858461221d565b6129e283612041565b840190509392505050565b5f81519050919050565b5f82825260208201905092915050565b5f819050602082019050919050565b612a1f81612364565b82525050565b5f612a308383612a16565b60208301905092915050565b5f602082019050919050565b5f612a52826129ed565b612a5c81856129f7565b9350612a6783612a07565b805f5b83811015612a97578151612a7e8882612a25565b9750612a8983612a3c565b925050600181019050612a6a565b5085935050505092915050565b5f6040820190508181035f830152612abd8185876129c1565b90508181036020830152612ad18184612a48565b9050949350505050565b5f81519050612ae981612701565b92915050565b5f60208284031215612b0457612b03611e18565b5b5f612b1184828501612adb565b91505092915050565b5f819050919050565b5f612b3d612b38612b3384612b1a565b612769565b611e7a565b9050919050565b612b4d81612b23565b82525050565b5f604082019050612b665f830185611fc6565b612b736020830184612b44565b9392505050565b5f819050919050565b5f612b9d612b98612b9384612b7a565b612769565b611e7a565b9050919050565b612bad81612b83565b82525050565b5f604082019050612bc65f830185611fc6565b612bd36020830184612ba4565b9392505050565b7f4e487b71000000000000000000000000000000000000000000000000000000005f52601160045260245ffd5b5f612c1182611e7a565b9150612c1c83611e7a565b9250828201905080821115612c3457612c33612bda565b5b92915050565b5f612c4482611e7a565b9150612c4f83611e7a565b9250828203905081811115612c6757612c66612bda565b5b92915050565b5f612c7782611e7a565b91507fffffffffffffffffffffffffffffffffffffffffffffffffffffffffffffffff8203612ca957612ca8612bda565b5b600182019050919050565b5f608082019050612cc75f830187611fc6565b612cd46020830186611eeb565b612ce16040830185611eeb565b612cee6060830184611eeb565b95945050505050565b5f6040820190508181035f830152612d0f8185612526565b90508181036020830152612d238184612526565b90509392505050565b5f81519050919050565b5f612d4082612d2c565b612d4a81856129b1565b9350612d5a818560208601612033565b612d6381612041565b840191505092915050565b5f60a082019050612d815f830188611fc6565b612d8e6020830187611fc6565b612d9b6040830186611eeb565b612da86060830185611eeb565b8181036080830152612dba8184612d36565b90509695505050505050565b5f81519050612dd481611f3e565b92915050565b5f60208284031215612def57612dee611e18565b5b5f612dfc84828501612dc6565b91505092915050565b5f60a082019050612e185f830188611fc6565b612e256020830187611fc6565b8181036040830152612e378186612526565b90508181036060830152612e4b8185612526565b90508181036080830152612e5f8184612d36565b9050969550505050505056fe697066733a2f2f626166796265696633657167646b68333775367334676667336d716b377576717477666f72643567336c6e697369366b73376c616464707a3678792f7b69647d2e6a736f6ea264697066735822122076fcbd2fc9fc22b7035fb8483c4d2088827588693ef827da108e6ce8954ee51564736f6c634300081c0033697066733a2f2f626166796265696633657167646b68333775367334676667336d716b377576717477666f72643567336c6e697369366b73376c616464707a3678792f7b69647d2e6a736f6e","linkReferences":{}},"methodIdentifiers":{"MIN_ROUND_DURATION()":"ab5669ad","balanceOf(address,uint256)":"00fdd58e","balanceOfBatch(address[],uint256[])":"4e1273f4","contractURI()":"e8a3d485","createRound(bytes32)":"83208629","getCurrentPanagram()":"463e4069","getCurrentRoundStatus()":"0d31d835","isApprovedForAll(address,address)":"e985e9c5","owner()":"8da5cb5b","renounceOwnership()":"715018a6","s_currentRound()":"c5c1676d","s_currentRoundWinner()":"76f865f9","s_lastCorrectGuessByUser(address)":"fc48f26e","s_roundStartTime()":"3e7fbd06","s_verifier()":"da730836","safeBatchTransferFrom(address,address,uint256[],uint256[],bytes)":"2eb2c2d6","safeTransferFrom(address,address,uint256,uint256,bytes)":"f242432a","setApprovalForAll(address,bool)":"a22cb465","setVerifier(address)":"5437988d","submitGuess(bytes)":"66358ec1","supportsInterface(bytes4)":"01ffc9a7","transferOwnership(address)":"f2fde38b","uri(uint256)":"0e89341c"},"id":36}