{"abi":[{"type":"constructor","inputs":[{"name":"_verifier","type":"address","internalType":"contract IVerifier"}],"stateMutability":"nonpayable"},{"type":"function","name":"MIN_ROUND_DURATION","inputs":[],"outputs":[{"name":"","type":"uint256","internalType":"uint256"}],"stateMutability":"view"},{"type":"function","name":"balanceOf","inputs":[{"name":"account","type":"address","internalType":"address"},{"name":"id","type":"uint256","internalType":"uint256"}],"outputs":[{"name":"","type":"uint256","internalType":"uint256"}],"stateMutability":"view"},{"type":"function","name":"balanceOfBatch","inputs":[{"name":"accounts","type":"address[]","internalType":"address[]"},{"name":"ids","type":"uint256[]","internalType":"uint256[]"}],"outputs":[{"name":"","type":"uint256[]","internalType":"uint256[]"}],"stateMutability":"view"},{"type":"function","name":"contractURI","inputs":[],"outputs":[{"name":"","type":"string","internalType":"string"}],"stateMutability":"pure"},{"type":"function","name":"createRound","inputs":[{"name":"_answer","type":"bytes32","internalType":"bytes32"}],"outputs":[],"stateMutability":"nonpayable"},{"type":"function","name":"getCurrentPanagram","inputs":[],"outputs":[{"name":"","type":"bytes32","internalType":"bytes32"}],"stateMutability":"view"},{"type":"function","name":"getCurrentRoundStatus","inputs":[],"outputs":[{"name":"","type":"address","internalType":"address"}],"stateMutability":"view"},{"type":"function","name":"isApprovedForAll","inputs":[{"name":"account","type":"address","internalType":"address"},{"name":"operator","type":"address","internalType":"address"}],"outputs":[{"name":"","type":"bool","internalType":"bool"}],"stateMutability":"view"},{"type":"function","name":"owner","inputs":[],"outputs":[{"name":"","type":"address","internalType":"address"}],"stateMutability":"view"},{"type":"function","name":"renounceOwnership","inputs":[],"outputs":[],"stateMutability":"nonpayable"},{"type":"function","name":"s_currentRound","inputs":[],"outputs":[{"name":"","type":"uint256","internalType":"uint256"}],"stateMutability":"view"},{"type":"function","name":"s_currentRoundWinner","inputs":[],"outputs":[{"name":"","type":"address","internalType":"address"}],"stateMutability":"view"},{"type":"function","name":"s_lastCorrectGuessByUser","inputs":[{"name":"","type":"address","internalType":"address"}],"outputs":[{"name":"","type":"uint256","internalType":"uint256"}],"stateMutability":"view"},{"type":"function","name":"s_roundStartTime","inputs":[],"outputs":[{"name":"","type":"uint256","internalType":"uint256"}],"stateMutability":"view"},{"type":"function","name":"s_verifier","inputs":[],"outputs":[{"name":"","type":"address","internalType":"contract IVerifier"}],"stateMutability":"view"},{"type":"function","name":"safeBatchTransferFrom","inputs":[{"name":"from","type":"address","internalType":"address"},{"name":"to","type":"address","internalType":"address"},{"name":"ids","type":"uint256[]","internalType":"uint256[]"},{"name":"values","type":"uint256[]","internalType":"uint256[]"},{"name":"data","type":"bytes","internalType":"bytes"}],"outputs":[],"stateMutability":"nonpayable"},{"type":"function","name":"safeTransferFrom","inputs":[{"name":"from","type":"address","internalType":"address"},{"name":"to","type":"address","internalType":"address"},{"name":"id","type":"uint256","internalType":"uint256"},{"name":"value","type":"uint256","internalType":"uint256"},{"name":"data","type":"bytes","internalType":"bytes"}],"outputs":[],"stateMutability":"nonpayable"},{"type":"function","name":"setApprovalForAll","inputs":[{"name":"operator","type":"address","internalType":"address"},{"name":"approved","type":"bool","internalType":"bool"}],"outputs":[],"stateMutability":"nonpayable"},{"type":"function","name":"setVerifier","inputs":[{"name":"_verifier","type":"address","internalType":"contract IVerifier"}],"outputs":[],"stateMutability":"nonpayable"},{"type":"function","name":"submitGuess","inputs":[{"name":"proof","type":"bytes","internalType":"bytes"}],"outputs":[{"name":"","type":"bool","internalType":"bool"}],"stateMutability":"nonpayable"},{"type":"function","name":"supportsInterface","inputs":[{"name":"interfaceId","type":"bytes4","internalType":"bytes4"}],"outputs":[{"name":"","type":"bool","internalType":"bool"}],"stateMutability":"view"},{"type":"function","name":"transferOwnership","inputs":[{"name":"newOwner","type":"address","internalType":"address"}],"outputs":[],"stateMutability":"nonpayable"},{"type":"function","name":"uri","inputs":[{"name":"","type":"uint256","internalType":"uint256"}],"outputs":[{"name":"","type":"string","internalType":"string"}],"stateMutability":"view"},{"type":"event","name":"ApprovalForAll","inputs":[{"name":"account","type":"address","indexed":true,"internalType":"address"},{"name":"operator","type":"address","indexed":true,"internalType":"address"},{"name":"approved","type":"bool","indexed":false,"internalType":"bool"}],"anonymous":false},{"type":"event","name":"OwnershipTransferred","inputs":[{"name":"previousOwner","type":"address","indexed":true,"internalType":"address"},{"name":"newOwner","type":"address","indexed":true,"internalType":"address"}],"anonymous":false},{"type":"event","name":"Panagram_NFTMinted","inputs":[{"name":"winner","type":"address","indexed":false,"internalType":"address"},{"name":"tokenID","type":"uint256","indexed":false,"internalType":"uint256"}],"anonymous":false},{"type":"event","name":"Panagram_NewRoundStarted","inputs":[],"anonymous":false},{"type":"event","name":"Panagram_ProofVerified","inputs":[{"name":"result","type":"bool","indexed":false,"internalType":"bool"}],"anonymous":false},{"type":"event","name":"Panagram_VerifierUpdated","inputs":[{"name":"_verifier","type":"address","indexed":false,"internalType":"contract IVerifier"}],"anonymous":false},{"type":"event","name":"TransferBatch","inputs":[{"name":"operator","type":"address","indexed":true,"internalType":"address"},{"name":"from","type":"address","indexed":true,"internalType":"address"},{"name":"to","type":"address","indexed":true,"internalType":"address"},{"name":"ids","type":"uint256[]","indexed":false,"internalType":"uint256[]"},{"name":"values","type":"uint256[]","indexed":false,"internalType":"uint256[]"}],"anonymous":false},{"type":"event","name":"TransferSingle","inputs":[{"name":"operator","type":"address","indexed":true,"internalType":"address"},{"name":"from","type":"address","indexed":true,"internalType":"address"},{"name":"to","type":"address","indexed":true,"internalType":"address"},{"name":"id","type":"uint256","indexed":false,"internalType":"uint256"},{"name":"value","type":"uint256","indexed":false,"internalType":"uint256"}],"anonymous":false},{"type":"event","name":"URI","inputs":[{"name":"value","type":"string","indexed":false,"internalType":"string"},{"name":"id","type":"uint256","indexed":true,"internalType":"uint256"}],"anonymous":false},{"type":"error","name":"ERC1155InsufficientBalance","inputs":[{"name":"sender","type":"address","internalType":"address"},{"name":"balance","type":"uint256","internalType":"uint256"},{"name":"needed","type":"uint256","internalType":"uint256"},{"name":"tokenId","type":"uint256","internalType":"uint256"}]},{"type":"error","name":"ERC1155InvalidApprover","inputs":[{"name":"approver","type":"address","internalType":"address"}]},{"type":"error","name":"ERC1155InvalidArrayLength","inputs":[{"name":"idsLength","type":"uint256","internalType":"uint256"},{"name":"valuesLength","type":"uint256","internalType":"uint256"}]},{"type":"error","name":"ERC1155InvalidOperator","inputs":[{"name":"operator","type":"address","internalType":"address"}]},{"type":"error","name":"ERC1155InvalidReceiver","inputs":[{"name":"receiver","type":"address","internalType":"address"}]},{"type":"error","name":"ERC1155InvalidSender","inputs":[{"name":"sender","type":"address","internalType":"address"}]},{"type":"error","name":"ERC1155MissingApprovalForAll","inputs":[{"name":"operator","type":"address","internalType":"address"},{"name":"owner","type":"address","internalType":"address"}]},{"type":"error","name":"OwnableInvalidOwner","inputs":[{"name":"owner","type":"address","internalType":"address"}]},{"type":"error","name":"OwnableUnauthorizedAccount","inputs":[{"name":"account","type":"address","internalType":"address"}]},{"type":"error","name":"Panagram_AlreadyAnsweredCorrectly","inputs":[]},{"type":"error","name":"Panagram_FirstPanagramNotSet","inputs":[]},{"type":"error","name":"Panagram_IncorrectGuess","inputs":[]},{"type":"error","name":"Panagram_MinTimeNotPassed","inputs":[{"name":"minTime","type":"uint256","internalType":"uint256"},{"name":"timePassed","type":"uint256","internalType":"uint256"}]},{"type":"error","name":"Panagram_NoRoundWinner","inputs":[]}],"bytecode":{"object":"0x608060405234801561000f575f5ffd5b5060405161354438038061354483398181016040528101906100319190610266565b336040518060800160405280604c81526020016134f8604c913961005a8161012160201b60201c565b505f73ffffffffffffffffffffffffffffffffffffffff168173ffffffffffffffffffffffffffffffffffffffff16036100cb575f6040517f1e4fbdf70000000000000000000000000000000000000000000000000000000081526004016100c291906102a0565b60405180910390fd5b6100da8161013460201b60201c565b508060045f6101000a81548173ffffffffffffffffffffffffffffffffffffffff021916908373ffffffffffffffffffffffffffffffffffffffff160217905550506105c5565b806002908161013091906104f6565b5050565b5f60035f9054906101000a900473ffffffffffffffffffffffffffffffffffffffff1690508160035f6101000a81548173ffffffffffffffffffffffffffffffffffffffff021916908373ffffffffffffffffffffffffffffffffffffffff1602179055508173ffffffffffffffffffffffffffffffffffffffff168173ffffffffffffffffffffffffffffffffffffffff167f8be0079c531659141344cd1fd0a4f28419497f9722a3daafe3b4186f6b6457e060405160405180910390a35050565b5f5ffd5b5f73ffffffffffffffffffffffffffffffffffffffff82169050919050565b5f610224826101fb565b9050919050565b5f6102358261021a565b9050919050565b6102458161022b565b811461024f575f5ffd5b50565b5f815190506102608161023c565b92915050565b5f6020828403121561027b5761027a6101f7565b5b5f61028884828501610252565b91505092915050565b61029a8161021a565b82525050565b5f6020820190506102b35f830184610291565b92915050565b5f81519050919050565b7f4e487b71000000000000000000000000000000000000000000000000000000005f52604160045260245ffd5b7f4e487b71000000000000000000000000000000000000000000000000000000005f52602260045260245ffd5b5f600282049050600182168061033457607f821691505b602082108103610347576103466102f0565b5b50919050565b5f819050815f5260205f209050919050565b5f6020601f8301049050919050565b5f82821b905092915050565b5f600883026103a97fffffffffffffffffffffffffffffffffffffffffffffffffffffffffffffffff8261036e565b6103b3868361036e565b95508019841693508086168417925050509392505050565b5f819050919050565b5f819050919050565b5f6103f76103f26103ed846103cb565b6103d4565b6103cb565b9050919050565b5f819050919050565b610410836103dd565b61042461041c826103fe565b84845461037a565b825550505050565b5f5f905090565b61043b61042c565b610446818484610407565b505050565b5b818110156104695761045e5f82610433565b60018101905061044c565b5050565b601f8211156104ae5761047f8161034d565b6104888461035f565b81016020851015610497578190505b6104ab6104a38561035f565b83018261044b565b50505b505050565b5f82821c905092915050565b5f6104ce5f19846008026104b3565b1980831691505092915050565b5f6104e683836104bf565b9150826002028217905092915050565b6104ff826102b9565b67ffffffffffffffff811115610518576105176102c3565b5b610522825461031d565b61052d82828561046d565b5f60209050601f83116001811461055e575f841561054c578287015190505b61055685826104db565b8655506105bd565b601f19841661056c8661034d565b5f5b828110156105935784890151825560018201915060208501945060208101905061056e565b868310156105b057848901516105ac601f8916826104bf565b8355505b6001600288020188555050505b505050505050565b612f26806105d25f395ff3fe608060405234801561000f575f5ffd5b506004361061014a575f3560e01c806376f865f9116100c1578063da7308361161007a578063da7308361461038a578063e8a3d485146103a8578063e985e9c5146103c6578063f242432a146103f6578063f2fde38b14610412578063fc48f26e1461042e5761014a565b806376f865f9146102da57806383208629146102f85780638da5cb5b14610314578063a22cb46514610332578063ab5669ad1461034e578063c5c1676d1461036c5761014a565b80633e7fbd06116101135780633e7fbd0614610218578063463e4069146102365780634e1273f4146102545780635437988d1461028457806366358ec1146102a0578063715018a6146102d05761014a565b8062fdd58e1461014e57806301ffc9a71461017e5780630d31d835146101ae5780630e89341c146101cc5780632eb2c2d6146101fc575b5f5ffd5b61016860048036038101906101639190611ee6565b61045e565b6040516101759190611f33565b60405180910390f35b61019860048036038101906101939190611fa1565b6104b3565b6040516101a59190611fe6565b60405180910390f35b6101b6610594565b6040516101c3919061200e565b60405180910390f35b6101e660048036038101906101e19190612027565b6105bc565b6040516101f391906120c2565b60405180910390f35b610216600480360381019061021191906122d2565b61064e565b005b6102206106f5565b60405161022d9190611f33565b60405180910390f35b61023e6106fb565b60405161024b91906123b5565b60405180910390f35b61026e6004803603810190610269919061248e565b610704565b60405161027b91906125bb565b60405180910390f35b61029e60048036038101906102999190612616565b61080e565b005b6102ba60048036038101906102b5919061269a565b610890565b6040516102c79190611fe6565b60405180910390f35b6102d8610c71565b005b6102e2610c84565b6040516102ef919061200e565b60405180910390f35b610312600480360381019061030d919061270f565b610ca9565b005b61031c610e46565b604051610329919061200e565b60405180910390f35b61034c60048036038101906103479190612764565b610e6e565b005b610356610e84565b6040516103639190611f33565b60405180910390f35b610374610e8a565b6040516103819190611f33565b60405180910390f35b610392610e90565b60405161039f91906127fd565b60405180910390f35b6103b0610eb5565b6040516103bd91906120c2565b60405180910390f35b6103e060048036038101906103db9190612816565b610ed5565b6040516103ed9190611fe6565b60405180910390f35b610410600480360381019061040b9190612854565b610f63565b005b61042c600480360381019061042791906128e7565b61100a565b005b610448600480360381019061044391906128e7565b61108e565b6040516104559190611f33565b60405180910390f35b5f5f5f8381526020019081526020015f205f8473ffffffffffffffffffffffffffffffffffffffff1673ffffffffffffffffffffffffffffffffffffffff1681526020019081526020015f2054905092915050565b5f7fd9b67a26000000000000000000000000000000000000000000000000000000007bffffffffffffffffffffffffffffffffffffffffffffffffffffffff1916827bffffffffffffffffffffffffffffffffffffffffffffffffffffffff1916148061057d57507f0e89341c000000000000000000000000000000000000000000000000000000007bffffffffffffffffffffffffffffffffffffffffffffffffffffffff1916827bffffffffffffffffffffffffffffffffffffffffffffffffffffffff1916145b8061058d575061058c826110a3565b5b9050919050565b5f60075f9054906101000a900473ffffffffffffffffffffffffffffffffffffffff16905090565b6060600280546105cb9061293f565b80601f01602080910402602001604051908101604052809291908181526020018280546105f79061293f565b80156106425780601f1061061957610100808354040283529160200191610642565b820191905f5260205f20905b81548152906001019060200180831161062557829003601f168201915b50505050509050919050565b5f61065761110c565b90508073ffffffffffffffffffffffffffffffffffffffff168673ffffffffffffffffffffffffffffffffffffffff161415801561069c575061069a8682610ed5565b155b156106e05780866040517fe237d9220000000000000000000000000000000000000000000000000000000081526004016106d792919061296f565b60405180910390fd5b6106ed8686868686611113565b505050505050565b60065481565b5f600554905090565b6060815183511461075057815183516040517f5b059991000000000000000000000000000000000000000000000000000000008152600401610747929190612996565b60405180910390fd5b5f835167ffffffffffffffff81111561076c5761076b6120e6565b5b60405190808252806020026020018201604052801561079a5781602001602082028036833780820191505090505b5090505f5f90505b8451811015610803576107d96107c1828761120790919063ffffffff16565b6107d4838761121a90919063ffffffff16565b61045e565b8282815181106107ec576107eb6129bd565b5b6020026020010181815250508060010190506107a2565b508091505092915050565b61081661122d565b8060045f6101000a81548173ffffffffffffffffffffffffffffffffffffffff021916908373ffffffffffffffffffffffffffffffffffffffff1602179055507f8320f616f21b1990babcbe80e84448b3a81b3805dd2b1aa27fb114e990c0601c8160405161088591906127fd565b60405180910390a150565b5f5f600854036108cc576040517fae99aaee00000000000000000000000000000000000000000000000000000000815260040160405180910390fd5b5f600267ffffffffffffffff8111156108e8576108e76120e6565b5b6040519080825280602002602001820160405280156109165781602001602082028036833780820191505090505b509050600554815f8151811061092f5761092e6129bd565b5b6020026020010181815250503373ffffffffffffffffffffffffffffffffffffffff165f1b81600181518110610968576109676129bd565b5b60200260200101818152505060085460095f3373ffffffffffffffffffffffffffffffffffffffff1673ffffffffffffffffffffffffffffffffffffffff1681526020019081526020015f2054036109ec576040517f464dc50300000000000000000000000000000000000000000000000000000000815260040160405180910390fd5b5f60045f9054906101000a900473ffffffffffffffffffffffffffffffffffffffff1673ffffffffffffffffffffffffffffffffffffffff1663ea50d0e48686856040518463ffffffff1660e01b8152600401610a4b93929190612add565b602060405180830381865afa158015610a66573d5f5f3e3d5ffd5b505050506040513d601f19601f82011682018060405250810190610a8a9190612b28565b90507fcee0a43d63fdf9bab350ebafdc7f304b1fd54617bffbcf04ad46cbc53784003b81604051610abb9190611fe6565b60405180910390a180610afa576040517f46f2fe7000000000000000000000000000000000000000000000000000000000815260040160405180910390fd5b60085460095f3373ffffffffffffffffffffffffffffffffffffffff1673ffffffffffffffffffffffffffffffffffffffff1681526020019081526020015f20819055505f73ffffffffffffffffffffffffffffffffffffffff1660075f9054906101000a900473ffffffffffffffffffffffffffffffffffffffff1673ffffffffffffffffffffffffffffffffffffffff1603610c11573373ffffffffffffffffffffffffffffffffffffffff1660075f9054906101000a90505050610bd2335f600160405180602001604052805f8152506112b4565b7fd330953b1c337786a01467c2261b138a3aa406ce42a5b4e53e36f6bccb9b8231336001604051610c04929190612b8c565b60405180910390a1610c66565b610c2c3360018060405180602001604052805f8152506112b4565b7fd330953b1c337786a01467c2261b138a3aa406ce42a5b4e53e36f6bccb9b8231335f604051610c5d929190612bec565b60405180910390a15b809250505092915050565b610c7961122d565b610c825f611349565b565b60075f9054906101000a900473ffffffffffffffffffffffffffffffffffffffff1681565b610cb161122d565b5f60065403610cc65780600581905550610e00565b610e10600654610cd69190612c40565b421115610d2b57610e1060065442610cee9190612c73565b6040517f2b7067fc000000000000000000000000000000000000000000000000000000008152600401610d22929190612996565b60405180910390fd5b5f73ffffffffffffffffffffffffffffffffffffffff1660075f9054906101000a900473ffffffffffffffffffffffffffffffffffffffff1673ffffffffffffffffffffffffffffffffffffffff1603610db1576040517f0b556b5d00000000000000000000000000000000000000000000000000000000815260040160405180910390fd5b80600581905550426006819055505f60075f6101000a81548173ffffffffffffffffffffffffffffffffffffffff021916908373ffffffffffffffffffffffffffffffffffffffff1602179055505b60085f815480929190610e1290612ca6565b91905055507fbaaeef9ccd572434e41798327c73451dc490ecd2a5d79c66ab115d8e3844a1dd60405160405180910390a150565b5f60035f9054906101000a900473ffffffffffffffffffffffffffffffffffffffff16905090565b610e80610e7961110c565b838361140c565b5050565b610e1081565b60085481565b60045f9054906101000a900473ffffffffffffffffffffffffffffffffffffffff1681565b60606040518060800160405280604c8152602001612ea5604c9139905090565b5f60015f8473ffffffffffffffffffffffffffffffffffffffff1673ffffffffffffffffffffffffffffffffffffffff1681526020019081526020015f205f8373ffffffffffffffffffffffffffffffffffffffff1673ffffffffffffffffffffffffffffffffffffffff1681526020019081526020015f205f9054906101000a900460ff16905092915050565b5f610f6c61110c565b90508073ffffffffffffffffffffffffffffffffffffffff168673ffffffffffffffffffffffffffffffffffffffff1614158015610fb15750610faf8682610ed5565b155b15610ff55780866040517fe237d922000000000000000000000000000000000000000000000000000000008152600401610fec92919061296f565b60405180910390fd5b6110028686868686611575565b505050505050565b61101261122d565b5f73ffffffffffffffffffffffffffffffffffffffff168173ffffffffffffffffffffffffffffffffffffffff1603611082575f6040517f1e4fbdf7000000000000000000000000000000000000000000000000000000008152600401611079919061200e565b60405180910390fd5b61108b81611349565b50565b6009602052805f5260405f205f915090505481565b5f7f01ffc9a7000000000000000000000000000000000000000000000000000000007bffffffffffffffffffffffffffffffffffffffffffffffffffffffff1916827bffffffffffffffffffffffffffffffffffffffffffffffffffffffff1916149050919050565b5f33905090565b5f73ffffffffffffffffffffffffffffffffffffffff168473ffffffffffffffffffffffffffffffffffffffff1603611183575f6040517f57f447ce00000000000000000000000000000000000000000000000000000000815260040161117a919061200e565b60405180910390fd5b5f73ffffffffffffffffffffffffffffffffffffffff168573ffffffffffffffffffffffffffffffffffffffff16036111f3575f6040517f01a835140000000000000000000000000000000000000000000000000000000081526004016111ea919061200e565b60405180910390fd5b611200858585858561167b565b5050505050565b5f60208202602084010151905092915050565b5f60208202602084010151905092915050565b61123561110c565b73ffffffffffffffffffffffffffffffffffffffff16611253610e46565b73ffffffffffffffffffffffffffffffffffffffff16146112b25761127661110c565b6040517f118cdaa70000000000000000000000000000000000000000000000000000000081526004016112a9919061200e565b60405180910390fd5b565b5f73ffffffffffffffffffffffffffffffffffffffff168473ffffffffffffffffffffffffffffffffffffffff1603611324575f6040517f57f447ce00000000000000000000000000000000000000000000000000000000815260040161131b919061200e565b60405180910390fd5b5f5f6113308585611727565b915091506113415f8784848761167b565b505050505050565b5f60035f9054906101000a900473ffffffffffffffffffffffffffffffffffffffff1690508160035f6101000a81548173ffffffffffffffffffffffffffffffffffffffff021916908373ffffffffffffffffffffffffffffffffffffffff1602179055508173ffffffffffffffffffffffffffffffffffffffff168173ffffffffffffffffffffffffffffffffffffffff167f8be0079c531659141344cd1fd0a4f28419497f9722a3daafe3b4186f6b6457e060405160405180910390a35050565b5f73ffffffffffffffffffffffffffffffffffffffff168273ffffffffffffffffffffffffffffffffffffffff160361147c575f6040517fced3e100000000000000000000000000000000000000000000000000000000008152600401611473919061200e565b60405180910390fd5b8060015f8573ffffffffffffffffffffffffffffffffffffffff1673ffffffffffffffffffffffffffffffffffffffff1681526020019081526020015f205f8473ffffffffffffffffffffffffffffffffffffffff1673ffffffffffffffffffffffffffffffffffffffff1681526020019081526020015f205f6101000a81548160ff0219169083151502179055508173ffffffffffffffffffffffffffffffffffffffff168373ffffffffffffffffffffffffffffffffffffffff167f17307eab39ab6107e8899845ad3d59bd9653f200f220920489ca2b5937696c31836040516115689190611fe6565b60405180910390a3505050565b5f73ffffffffffffffffffffffffffffffffffffffff168473ffffffffffffffffffffffffffffffffffffffff16036115e5575f6040517f57f447ce0000000000000000000000000000000000000000000000000000000081526004016115dc919061200e565b60405180910390fd5b5f73ffffffffffffffffffffffffffffffffffffffff168573ffffffffffffffffffffffffffffffffffffffff1603611655575f6040517f01a8351400000000000000000000000000000000000000000000000000000000815260040161164c919061200e565b60405180910390fd5b5f5f6116618585611727565b91509150611672878784848761167b565b50505050505050565b61168785858585611757565b5f73ffffffffffffffffffffffffffffffffffffffff168473ffffffffffffffffffffffffffffffffffffffff1614611720575f6116c361110c565b9050600184510361170f575f6116e25f8661121a90919063ffffffff16565b90505f6116f85f8661121a90919063ffffffff16565b9050611708838989858589611aea565b505061171e565b61171d818787878787611c99565b5b505b5050505050565b60608060405191506001825283602083015260408201905060018152826020820152604081016040529250929050565b80518251146117a157815181516040517f5b059991000000000000000000000000000000000000000000000000000000008152600401611798929190612996565b60405180910390fd5b5f6117aa61110c565b90505f5f90505b83518110156119a9575f6117ce828661121a90919063ffffffff16565b90505f6117e4838661121a90919063ffffffff16565b90505f73ffffffffffffffffffffffffffffffffffffffff168873ffffffffffffffffffffffffffffffffffffffff1614611907575f5f5f8481526020019081526020015f205f8a73ffffffffffffffffffffffffffffffffffffffff1673ffffffffffffffffffffffffffffffffffffffff1681526020019081526020015f20549050818110156118b357888183856040517f03dee4c50000000000000000000000000000000000000000000000000000000081526004016118aa9493929190612ced565b60405180910390fd5b8181035f5f8581526020019081526020015f205f8b73ffffffffffffffffffffffffffffffffffffffff1673ffffffffffffffffffffffffffffffffffffffff1681526020019081526020015f2081905550505b5f73ffffffffffffffffffffffffffffffffffffffff168773ffffffffffffffffffffffffffffffffffffffff161461199c57805f5f8481526020019081526020015f205f8973ffffffffffffffffffffffffffffffffffffffff1673ffffffffffffffffffffffffffffffffffffffff1681526020019081526020015f205f8282546119949190612c40565b925050819055505b50508060010190506117b1565b506001835103611a64575f6119c75f8561121a90919063ffffffff16565b90505f6119dd5f8561121a90919063ffffffff16565b90508573ffffffffffffffffffffffffffffffffffffffff168773ffffffffffffffffffffffffffffffffffffffff168473ffffffffffffffffffffffffffffffffffffffff167fc3d58168c5ae7397731d063d5bbf3d657854427343f4c083240f7aacaa2d0f628585604051611a55929190612996565b60405180910390a45050611ae3565b8373ffffffffffffffffffffffffffffffffffffffff168573ffffffffffffffffffffffffffffffffffffffff168273ffffffffffffffffffffffffffffffffffffffff167f4a39dc06d4c0dbc64b70af90fd698a233a518aa5d07e595d983b8c0526c8f7fb8686604051611ada929190612d30565b60405180910390a45b5050505050565b5f8473ffffffffffffffffffffffffffffffffffffffff163b1115611c91578373ffffffffffffffffffffffffffffffffffffffff1663f23a6e6187878686866040518663ffffffff1660e01b8152600401611b4a959493929190612da7565b6020604051808303815f875af1925050508015611b8557506040513d601f19601f82011682018060405250810190611b829190612e13565b60015b611c06573d805f8114611bb3576040519150601f19603f3d011682016040523d82523d5f602084013e611bb8565b606091505b505f815103611bfe57846040517f57f447ce000000000000000000000000000000000000000000000000000000008152600401611bf5919061200e565b60405180910390fd5b805160208201fd5b63f23a6e6160e01b7bffffffffffffffffffffffffffffffffffffffffffffffffffffffff1916817bffffffffffffffffffffffffffffffffffffffffffffffffffffffff191614611c8f57846040517f57f447ce000000000000000000000000000000000000000000000000000000008152600401611c86919061200e565b60405180910390fd5b505b505050505050565b5f8473ffffffffffffffffffffffffffffffffffffffff163b1115611e40578373ffffffffffffffffffffffffffffffffffffffff1663bc197c8187878686866040518663ffffffff1660e01b8152600401611cf9959493929190612e3e565b6020604051808303815f875af1925050508015611d3457506040513d601f19601f82011682018060405250810190611d319190612e13565b60015b611db5573d805f8114611d62576040519150601f19603f3d011682016040523d82523d5f602084013e611d67565b606091505b505f815103611dad57846040517f57f447ce000000000000000000000000000000000000000000000000000000008152600401611da4919061200e565b60405180910390fd5b805160208201fd5b63bc197c8160e01b7bffffffffffffffffffffffffffffffffffffffffffffffffffffffff1916817bffffffffffffffffffffffffffffffffffffffffffffffffffffffff191614611e3e57846040517f57f447ce000000000000000000000000000000000000000000000000000000008152600401611e35919061200e565b60405180910390fd5b505b505050505050565b5f604051905090565b5f5ffd5b5f5ffd5b5f73ffffffffffffffffffffffffffffffffffffffff82169050919050565b5f611e8282611e59565b9050919050565b611e9281611e78565b8114611e9c575f5ffd5b50565b5f81359050611ead81611e89565b92915050565b5f819050919050565b611ec581611eb3565b8114611ecf575f5ffd5b50565b5f81359050611ee081611ebc565b92915050565b5f5f60408385031215611efc57611efb611e51565b5b5f611f0985828601611e9f565b9250506020611f1a85828601611ed2565b9150509250929050565b611f2d81611eb3565b82525050565b5f602082019050611f465f830184611f24565b92915050565b5f7fffffffff0000000000000000000000000000000000000000000000000000000082169050919050565b611f8081611f4c565b8114611f8a575f5ffd5b50565b5f81359050611f9b81611f77565b92915050565b5f60208284031215611fb657611fb5611e51565b5b5f611fc384828501611f8d565b91505092915050565b5f8115159050919050565b611fe081611fcc565b82525050565b5f602082019050611ff95f830184611fd7565b92915050565b61200881611e78565b82525050565b5f6020820190506120215f830184611fff565b92915050565b5f6020828403121561203c5761203b611e51565b5b5f61204984828501611ed2565b91505092915050565b5f81519050919050565b5f82825260208201905092915050565b8281835e5f83830152505050565b5f601f19601f8301169050919050565b5f61209482612052565b61209e818561205c565b93506120ae81856020860161206c565b6120b78161207a565b840191505092915050565b5f6020820190508181035f8301526120da818461208a565b905092915050565b5f5ffd5b7f4e487b71000000000000000000000000000000000000000000000000000000005f52604160045260245ffd5b61211c8261207a565b810181811067ffffffffffffffff8211171561213b5761213a6120e6565b5b80604052505050565b5f61214d611e48565b90506121598282612113565b919050565b5f67ffffffffffffffff821115612178576121776120e6565b5b602082029050602081019050919050565b5f5ffd5b5f61219f61219a8461215e565b612144565b905080838252602082019050602084028301858111156121c2576121c1612189565b5b835b818110156121eb57806121d78882611ed2565b8452602084019350506020810190506121c4565b5050509392505050565b5f82601f830112612209576122086120e2565b5b813561221984826020860161218d565b91505092915050565b5f5ffd5b5f67ffffffffffffffff8211156122405761223f6120e6565b5b6122498261207a565b9050602081019050919050565b828183375f83830152505050565b5f61227661227184612226565b612144565b90508281526020810184848401111561229257612291612222565b5b61229d848285612256565b509392505050565b5f82601f8301126122b9576122b86120e2565b5b81356122c9848260208601612264565b91505092915050565b5f5f5f5f5f60a086880312156122eb576122ea611e51565b5b5f6122f888828901611e9f565b955050602061230988828901611e9f565b945050604086013567ffffffffffffffff81111561232a57612329611e55565b5b612336888289016121f5565b935050606086013567ffffffffffffffff81111561235757612356611e55565b5b612363888289016121f5565b925050608086013567ffffffffffffffff81111561238457612383611e55565b5b612390888289016122a5565b9150509295509295909350565b5f819050919050565b6123af8161239d565b82525050565b5f6020820190506123c85f8301846123a6565b92915050565b5f67ffffffffffffffff8211156123e8576123e76120e6565b5b602082029050602081019050919050565b5f61240b612406846123ce565b612144565b9050808382526020820190506020840283018581111561242e5761242d612189565b5b835b8181101561245757806124438882611e9f565b845260208401935050602081019050612430565b5050509392505050565b5f82601f830112612475576124746120e2565b5b81356124858482602086016123f9565b91505092915050565b5f5f604083850312156124a4576124a3611e51565b5b5f83013567ffffffffffffffff8111156124c1576124c0611e55565b5b6124cd85828601612461565b925050602083013567ffffffffffffffff8111156124ee576124ed611e55565b5b6124fa858286016121f5565b9150509250929050565b5f81519050919050565b5f82825260208201905092915050565b5f819050602082019050919050565b61253681611eb3565b82525050565b5f612547838361252d565b60208301905092915050565b5f602082019050919050565b5f61256982612504565b612573818561250e565b935061257e8361251e565b805f5b838110156125ae578151612595888261253c565b97506125a083612553565b925050600181019050612581565b5085935050505092915050565b5f6020820190508181035f8301526125d3818461255f565b905092915050565b5f6125e582611e78565b9050919050565b6125f5816125db565b81146125ff575f5ffd5b50565b5f81359050612610816125ec565b92915050565b5f6020828403121561262b5761262a611e51565b5b5f61263884828501612602565b91505092915050565b5f5ffd5b5f5f83601f84011261265a576126596120e2565b5b8235905067ffffffffffffffff81111561267757612676612641565b5b60208301915083600182028301111561269357612692612189565b5b9250929050565b5f5f602083850312156126b0576126af611e51565b5b5f83013567ffffffffffffffff8111156126cd576126cc611e55565b5b6126d985828601612645565b92509250509250929050565b6126ee8161239d565b81146126f8575f5ffd5b50565b5f81359050612709816126e5565b92915050565b5f6020828403121561272457612723611e51565b5b5f612731848285016126fb565b91505092915050565b61274381611fcc565b811461274d575f5ffd5b50565b5f8135905061275e8161273a565b92915050565b5f5f6040838503121561277a57612779611e51565b5b5f61278785828601611e9f565b925050602061279885828601612750565b9150509250929050565b5f819050919050565b5f6127c56127c06127bb84611e59565b6127a2565b611e59565b9050919050565b5f6127d6826127ab565b9050919050565b5f6127e7826127cc565b9050919050565b6127f7816127dd565b82525050565b5f6020820190506128105f8301846127ee565b92915050565b5f5f6040838503121561282c5761282b611e51565b5b5f61283985828601611e9f565b925050602061284a85828601611e9f565b9150509250929050565b5f5f5f5f5f60a0868803121561286d5761286c611e51565b5b5f61287a88828901611e9f565b955050602061288b88828901611e9f565b945050604061289c88828901611ed2565b93505060606128ad88828901611ed2565b925050608086013567ffffffffffffffff8111156128ce576128cd611e55565b5b6128da888289016122a5565b9150509295509295909350565b5f602082840312156128fc576128fb611e51565b5b5f61290984828501611e9f565b91505092915050565b7f4e487b71000000000000000000000000000000000000000000000000000000005f52602260045260245ffd5b5f600282049050600182168061295657607f821691505b60208210810361296957612968612912565b5b50919050565b5f6040820190506129825f830185611fff565b61298f6020830184611fff565b9392505050565b5f6040820190506129a95f830185611f24565b6129b66020830184611f24565b9392505050565b7f4e487b71000000000000000000000000000000000000000000000000000000005f52603260045260245ffd5b5f82825260208201905092915050565b5f612a0583856129ea565b9350612a12838584612256565b612a1b8361207a565b840190509392505050565b5f81519050919050565b5f82825260208201905092915050565b5f819050602082019050919050565b612a588161239d565b82525050565b5f612a698383612a4f565b60208301905092915050565b5f602082019050919050565b5f612a8b82612a26565b612a958185612a30565b9350612aa083612a40565b805f5b83811015612ad0578151612ab78882612a5e565b9750612ac283612a75565b925050600181019050612aa3565b5085935050505092915050565b5f6040820190508181035f830152612af68185876129fa565b90508181036020830152612b0a8184612a81565b9050949350505050565b5f81519050612b228161273a565b92915050565b5f60208284031215612b3d57612b3c611e51565b5b5f612b4a84828501612b14565b91505092915050565b5f819050919050565b5f612b76612b71612b6c84612b53565b6127a2565b611eb3565b9050919050565b612b8681612b5c565b82525050565b5f604082019050612b9f5f830185611fff565b612bac6020830184612b7d565b9392505050565b5f819050919050565b5f612bd6612bd1612bcc84612bb3565b6127a2565b611eb3565b9050919050565b612be681612bbc565b82525050565b5f604082019050612bff5f830185611fff565b612c0c6020830184612bdd565b9392505050565b7f4e487b71000000000000000000000000000000000000000000000000000000005f52601160045260245ffd5b5f612c4a82611eb3565b9150612c5583611eb3565b9250828201905080821115612c6d57612c6c612c13565b5b92915050565b5f612c7d82611eb3565b9150612c8883611eb3565b9250828203905081811115612ca057612c9f612c13565b5b92915050565b5f612cb082611eb3565b91507fffffffffffffffffffffffffffffffffffffffffffffffffffffffffffffffff8203612ce257612ce1612c13565b5b600182019050919050565b5f608082019050612d005f830187611fff565b612d0d6020830186611f24565b612d1a6040830185611f24565b612d276060830184611f24565b95945050505050565b5f6040820190508181035f830152612d48818561255f565b90508181036020830152612d5c818461255f565b90509392505050565b5f81519050919050565b5f612d7982612d65565b612d8381856129ea565b9350612d9381856020860161206c565b612d9c8161207a565b840191505092915050565b5f60a082019050612dba5f830188611fff565b612dc76020830187611fff565b612dd46040830186611f24565b612de16060830185611f24565b8181036080830152612df38184612d6f565b90509695505050505050565b5f81519050612e0d81611f77565b92915050565b5f60208284031215612e2857612e27611e51565b5b5f612e3584828501612dff565b91505092915050565b5f60a082019050612e515f830188611fff565b612e5e6020830187611fff565b8181036040830152612e70818661255f565b90508181036060830152612e84818561255f565b90508181036080830152612e988184612d6f565b9050969550505050505056fe697066733a2f2f626166796265696633657167646b68333775367334676667336d716b377576717477666f72643567336c6e697369366b73376c616464707a3678792f7b69647d2e6a736f6ea2646970667358221220a7b5466a27259567dd4eef233f5bb9c8dca29c8228779c66d464714e36bff98264736f6c634300081c0033697066733a2f2f626166796265696633657167646b68333775367334676667336d716b377576717477666f72643567336c6e697369366b73376c616464707a3678792f7b69647d2e6a736f6e","linkReferences":{}},"methodIdentifiers":{"MIN_ROUND_DURATION()":"ab5669ad","balanceOf(address,uint256)":"00fdd58e","balanceOfBatch(address[],uint256[])":"4e1273f4","contractURI()":"e8a3d485","createRound(bytes32)":"83208629","getCurrentPanagram()":"463e4069","getCurrentRoundStatus()":"0d31d835","isApprovedForAll(address,address)":"e985e9c5","owner()":"8da5cb5b","renounceOwnership()":"715018a6","s_currentRound()":"c5c1676d","s_currentRoundWinner()":"76f865f9","s_lastCorrectGuessByUser(address)":"fc48f26e","s_roundStartTime()":"3e7fbd06","s_verifier()":"da730836","safeBatchTransferFrom(address,address,uint256[],uint256[],bytes)":"2eb2c2d6","safeTransferFrom(address,address,uint256,uint256,bytes)":"f242432a","setApprovalForAll(address,bool)":"a22cb465","setVerifier(address)":"5437988d","submitGuess(bytes)":"66358ec1","supportsInterface(bytes4)":"01ffc9a7","transferOwnership(address)":"f2fde38b","uri(uint256)":"0e89341c"},"id":17}